:020000040000fa
:080000000002040000000000f2
:020000040000fa
:04000800fe020000f4
:020000040000fa
:04000c0010030000dd
:020000040000fa
:0400100028030000c1
:020000040000fa
:0400140006030000df
:020000040000fa
:0400180018030000c9
:020000040000fa
:04001c0020030000bd
:020000040000fa
:0400200030030000a9
:020000040000fa
:04002400c80400000c
:020000040000fa
:04002800c804000008
:020000040000fa
:04002c00c804000004
:020000040000fa
:04003000c804000000
:020000040000fa
:04003400c8040000fc
:020000040000fa
:04003800c8040000f8
:020000040000fa
:04003c00c8040000f4
:020000040000fa
:04004000c8040000f0
:020000040000fa
:040044004204000072
:020000040000fa
:04004800c8040000e8
:020000040000fa
:04004c00c8040000e4
:020000040000fa
:04005000c8040000e0
:020000040000fa
:04005400a403000001
:020000040000fa
:040058003803000069
:020000040000fa
:04005c00c8040000d4
:020000040000fa
:04006000c8040000d0
:020000040000fa
:04006400c8040000cc
:020000040000fa
:04006800c8040000c8
:020000040000fa
:04006c00c8040000c4
:020000040000fa
:04007000c8040000c0
:020000040000fa
:04007400780400000c
:020000040000fa
:04007800c8040000b8
:020000040000fa
:04007c00c8040000b4
:020000040000fa
:04008000c8040000b0
:020000040000fa
:04008400c8040000ac
:020000040000fa
:04008800c8040000a8
:020000040000fa
:04008c00c8040000a4
:020000040000fa
:04009000c8040000a0
:020000040000fa
:04009400c80400009c
:020000040000fa
:04009800c804000098
:020000040000fa
:04009c00c804000094
:020000040000fa
:0400a000c804000090
:020000040000fa
:0400a400c80400008c
:020000040000fa
:0400a800c804000088
:020000040000fa
:0400ac00c804000084
:020000040000fa
:0400b000c804000080
:020000040000fa
:0400b400c80400007c
:020000040000fa
:0400b800c804000078
:020000040000fa
:0400bc00c804000074
:020000040000fa
:0400c000c804000070
:020000040000fa
:0400c400c80400006c
:020000040000fa
:0400c800c804000068
:020000040000fa
:0400cc00c804000064
:020000040000fa
:0400d000c804000060
:020000040000fa
:0400d400c80400005c
:020000040000fa
:0400d800c804000058
:020000040000fa
:0400dc00c804000054
:020000040000fa
:0400e000c804000050
:020000040000fa
:0400e400c80400004c
:020000040000fa
:0400e800c804000048
:020000040000fa
:0400ec00c804000044
:020000040000fa
:0400f000c804000040
:020000040000fa
:0400f400c80400003c
:020000040000fa
:0400f800c804000038
:020000040000fa
:0400fc00c804000034
:020000040000fa
:04010000c80400002f
:020000040000fa
:04010400c80400002b
:020000040000fa
:04010800c804000027
:020000040000fa
:04010c00c804000023
:020000040000fa
:04011000c80400001f
:020000040000fa
:04011400c80400001b
:020000040000fa
:04011800c804000017
:020000040000fa
:04011c00c804000013
:020000040000fa
:04012000c80400000f
:020000040000fa
:04012400c80400000b
:020000040000fa
:04012800c804000007
:020000040000fa
:04012c002c0400009f
:020000040000fa
:04013000c8040000ff
:020000040000fa
:04013400c8040000fb
:020000040000fa
:04013800c8040000f7
:020000040000fa
:04013c00c8040000f3
:020000040000fa
:04014000c8040000ef
:020000040000fa
:04014400c8040000eb
:020000040000fa
:04014800c8040000e7
:020000040000fa
:04014c00c8040000e3
:020000040000fa
:04015000c8040000df
:020000040000fa
:04015400c8040000db
:020000040000fa
:04015800c8040000d7
:020000040000fa
:04015c00c8040000d3
:020000040000fa
:04016000c8040000cf
:020000040000fa
:04016400c8040000cb
:020000040000fa
:04016800c8040000c7
:020000040000fa
:04016c00c8040000c3
:020000040000fa
:04017000c8040000bf
:020000040000fa
:04017400c8040000bb
:020000040000fa
:04017800c8040000b7
:020000040000fa
:04017c00c8040000b3
:020000040000fa
:04018000c8040000af
:020000040000fa
:04018400c8040000ab
:020000040000fa
:04018800c8040000a7
:020000040000fa
:04018c00c8040000a3
:020000040000fa
:04019000c80400009f
:020000040000fa
:04019400c80400009b
:020000040000fa
:04019800c804000097
:020000040000fa
:04019c00c804000093
:020000040000fa
:0401a000c80400008f
:020000040000fa
:0401a400c80400008b
:020000040000fa
:0401a800c804000087
:020000040000fa
:0401ac00c804000083
:020000040000fa
:0401b000c80400007f
:020000040000fa
:0401b400c80400007b
:020000040000fa
:0401b800c804000077
:020000040000fa
:0401bc00c804000073
:020000040000fa
:0401c000c80400006f
:020000040000fa
:0401c400c80400006b
:020000040000fa
:0401c800c804000067
:020000040000fa
:0401cc00c804000063
:020000040000fa
:0401d000c80400005f
:020000040000fa
:0401d400c80400005b
:020000040000fa
:0401d800c804000057
:020000040000fa
:0401dc00c804000053
:020000040000fa
:0401e000c80400004f
:020000040000fa
:0401e400c80400004b
:020000040000fa
:0401e800c804000047
:020000040000fa
:0401ec00c804000043
:020000040000fa
:0401f000c80400003f
:020000040000fa
:0401f400c80400003b
:020000040000fa
:0401f800c804000037
:020000040000fa
:0401fc00c804000033
:020000040000fa
:04020000c80400002e
:020000040000fa
:04020400c80400002a
:020000040000fa
:04020800c804000026
:020000040000fa
:04020c00c804000022
:020000040000fa
:04021000c80400001e
:020000040000fa
:04021400c80400001a
:020000040000fa
:04021800c804000016
:020000040000fa
:04021c00c804000012
:020000040000fa
:04022000c80400000e
:020000040000fa
:04022400c80400000a
:020000040000fa
:04022800c804000006
:020000040000fa
:04022c00c804000002
:020000040000fa
:04023000c8040000fe
:020000040000fa
:04023400c8040000fa
:020000040000fa
:04023800c8040000f6
:020000040000fa
:04023c00c8040000f2
:020000040000fa
:04024000c8040000ee
:020000040000fa
:04024400c8040000ea
:020000040000fa
:04024800c8040000e6
:020000040000fa
:04024c00c8040000e2
:020000040000fa
:04025000c8040000de
:020000040000fa
:04025400c8040000da
:020000040000fa
:04025800c8040000d6
:020000040000fa
:04025c00c8040000d2
:020000040000fa
:04026000c8040000ce
:020000040000fa
:04026400c8040000ca
:020000040000fa
:04026800c8040000c6
:020000040000fa
:04026c00c8040000c2
:020000040000fa
:04027000c8040000be
:020000040000fa
:04027400c8040000ba
:020000040000fa
:04027800c8040000b6
:020000040000fa
:04027c00c8040000b2
:020000040000fa
:04028000c8040000ae
:020000040000fa
:10040000af1c21000eff22000e018800000000003a
:10041000000020000000e000020032000001200087
:1004200020028800140007005b0107000000e000c4
:1004300003003a0080e221000100200002003700a2
:100440000000200001002000810f70000100320038
:100450000f000700000020000000e0000200320052
:100460000000020000000000f21f02000000000077
:100470000040da000000fe00600020000000e00004
:1004800002003200002020009001880000000600d9
:10049000a1028800800478000000eb001f003700f4
:1004a000e284440054a0b4009905ba00e2844400f8
:1004b00054a0b4009906ba00e284440054a0b400e9
:1004c0000006eb00476fde00fd07b200ae018800ba
:1004d000636ce10003003a000ad801000000eb0061
:1004e0000e003700606ce10008003a00004deb00a0
:1004f0000a05e800020039003420ec000af0a000f0
:100500008b05e900f9ff3e00040037006168e10057
:10051000010032000086eb000b00070019c7ba008b
:100520000e04e0001905ba0003003a000a00e000da
:10053000dbff3a0000000600fe07b200ae028800b2
:100540008a047800f5ff37000cd0a300e20f4d00bd
:100550001c00390089027800354dba000a05e80010
:10056000020039003420ec000af0a0008b05e900fd
:100570000f003200254dba000a05e80002003900dc
:100580003420ec000af0a0008b05e90008003200de
:100590000c00e0000600320015cdba000a05e800a4
:1005a000020039003420ec000af0a0008b05e900bd
:1005b0008984e80054a0b4000b00e000e2ff3a0098
:1005c000000006009902ba00055d78008b05e9007d
:1005d000f7ff3200c82ade00055d78008b05e900d0
:1005e000f3ff32000c00e000f1ff320019ddba0029
:1005f000eeff370000000000000000003600f800a9
:10060000c028a9000000eb00c10e07003600f8006a
:10061000c30e0700c048a90010002000bc0e070050
:100620003600f800c068a90020002000b80e0700be
:100630003600f800c088a90030002000b40e070082
:100640003600f800c0a8a90040002000b00e070046
:100650003600f800c608a90070002000ac0e0700a4
:100660003600f800c488a900a0002000a80e0700ea
:10067000809fbe000000fa0001848000f0838000ab
:10068000808f500010003a0011848000001020007c
:10069000008060000000e0000b003a000000000055
:1006a0001111800000102000008060000000e000b8
:1006b000fbff3200108480000090a00010848800ae
:1006c0002188a9001d0037000188a9001400370007
:1006d00000848000104078000080fb00201188001a
:1006e000008480000000e80000848800018480000d
:1006f000600b2100808f500002003a00400821006a
:1007000000848800108480000080a100108488008c
:1007100001848000f0838000808f5000060032004a
:100720001111800000202000008060000000e00027
:10073000e7ff320001003700000000000080fa00ef
:100740004f00be00004006003600f800809fbe004b
:10075000829fbe00849fbe00869fbe000200fa00fa
:100760000040eb00004f78002a0037003011800075
:1007700000407800004f78009e40780000c8b30029
:1007800080cf500005003a0020d0bf000004e000f8
:1007900002003a0010c0b30020f0b70020d0bf0024
:1007a0000004e00003003a0010c0b30072f0b7008c
:1007b0001c0037007270ef00d08380009e407800ec
:1007c00001487800d08380000000e800d0838800d2
:1007d000d1838000800e2100808f500002003a00fb
:1007e000600b2100d0838800108480000010a100dd
:1007f00010848800d1838000e0838000808f5000c7
:1008000004003a00108480000000a00010848800da
:100810000400370010118000610060000000e0005b
:10082000d2ff3a0072d0bf000004e00002003a009c
:100830001e407800760307000168a9000080fa00d6
:100840004f03be004f02be004f01be004f00be006e
:100850003600f90000400600801f78000000fa0012
:1008600010118000620060000000e0000100320012
:100870002222a9000828a9000080fa004f00780071
:10088000004006003600f800809fbe00829fbe0038
:10089000849fbe00869fbe000000fa00a0838000f7
:1008a0000000e00002003200a08380000000010090
:1008b000901c2100104078008040e800901c21002e
:1008c00001487800801c210011c0b3000148780065
:1008d00000e8a9000080fa004f03be004f02be00ee
:1008e0004f01be004f00be003600f9000040060078
:1008f0003600f800809fbe00829fbe00849fbe002d
:10090000869fbe000200fa0021d0bf000004a200b2
:100910000004e0000200320010c0b30021f0b70074
:10092000907080004300de006140600080407800ed
:10093000200020008008dd00107180000000d10040
:10094000614060000040400080c0400010708000a6
:100950004b00de006140600000c04000004f7800a6
:100960001e4078000000fb0011002000cc040700ae
:100970000268a9000080fa004f03be004f02be00cb
:100980004f01be004f00be003600f90000400600d7
:100990000040da000000fe000000050003f0a200a5
:1009a000889fbe008a9fbe008c1f7800fa00070057
:1009b000010133006450e1004f0032006420e10087
:1009c0005200320003826c0007003b000905d00092
:1009d0000306d000820f54000c065d0002003900af
:1009e00002003200890178000306780085825500f4
:1009f00004003d000003fd008103fd008502ea00c4
:100a00008b854200840f720002003b0060001000e2
:100a1000e08018006011b8000005eb007a28e100c2
:100a20000a00390006007800c75ddd00f707b20054
:100a3000878075002d003700828171000a017800df
:100a4000610560008180d1000080d3008502e9004b
:100a5000f9ff3b00060440008784480002003b0089
:100a600060041400e0841c000988a3000700320021
:100a70008a81710082817100610164008904d10062
:100a80000884d3008b05e800170037000978a3001d
:100a900013003a000b00e000130034008b05e9005e
:100aa0000804440089844c000a4474000978a300b7
:100ab0000d003a000b00e000070034008b05e90050
:100ac0000804440089844c0001003a000b00200017
:100ad0000978a300f7ff32000001eb0002003700a5
:100ae000828171000a017800700007000cf0a700f5
:100af00001f0a000b90037006420e10002003a00d4
:100b0000838f6c00b90033000801be000200be00f4
:100b1000b2003700889fbe008a9fbe008c1f7800fd
:100b20009d000700a400330003866c006450e100c0
:100b30002e0032006420e100330032006150e100f9
:100b40002f0032006120e100310032008585550020
:100b5000eb07b00009002000080420000500370062
:100b60000804440089844c000a0031000603430055
:100b700087834b000001530081815b00f8ff330045
:100b80000203be000800a0000804440089844c0051
:100b9000f6ff3900c639dd00830173000100320021
:100ba000130020008904d1000884d3000998a30011
:100bb000050032000800a7000300a0008904d1004e
:100bc0000884d3008b05e8008904d1000884d30091
:100bd0000001eb000281d2003400070001f0a10007
:100be0000cf0a70001f0a0007c0037006420e100b9
:100bf0007e0032000801be000200be00f7ff370091
:100c00006120e100790032006000b800f3ff370096
:100c10000000200001f82700f0ff3700140020003a
:100c2000b9003700f4ff2f00b70037000001be0005
:100c3000440007000470a70003f0a10003f8a3001c
:100c400013003a006509b1001000320009003500b8
:100c50006928e100020035000100280000000500bd
:100c600000004000818048008502e900fcff3a0056
:100c700000000600f88f4200050035008100d10019
:100c80000080d3008502e800fcff3a000000060067
:100c90008000eb00000005004f89de008201780033
:100ca000b40037006011b800c20037008100200096
:100cb000618055000b003d000b00200061fe2f00fd
:100cc0000100e1001d0034008281710061016400b7
:100cd0008904d1000884d3000000e800faff3a003c
:100ce00071002000610064000300700002006000d9
:100cf0000900320061044400e0844c000988a5002a
:100d0000050032008b05e8006808e10002003a00a7
:100d10008904d1000884d300f20f20000258e100ba
:100d200005003d00c75ddd00f907b2008980750050
:100d300008007800000006000bf827008b00780000
:100d400000000500c70ade00f107b200f50fb2008f
:100d500008003200e1cf4200020032000170a00022
:100d600024000500810f7000010032000408050016
:100d700044000500810f700002003a0014000500d5
:100d80008502e9000000400081c04800fcff3b00f4
:100d90000170a000240005000004be00e9ff070068
:100da0000003be000405be000200be00e5ff070010
:100db000844f7500000006000200be006450e10090
:100dc000050036006420e100020036000968a30037
:100dd00001003a000800be000160a0004f06780044
:100de0004f05be004f04be0000000600f0ff2f00bc
:100df000f1ff2700f9ff3700889fbe008a9fbe00e1
:100e00008c1f7800e4ff0700ebff330003866c00c3
:100e10006450e100240032006420e1002700320029
:100e20006150e100220032006120e1002100320027
:100e30008b854200eb07b1000134b800003ab800de
:100e40000804420089844a00013ab8000030b80022
:100e50008880400009014a0004003300000040007f
:100e600081804800020149008b05e900c909dd00c5
:100e7000830170000100320013002000c814de005e
:100e80004814dd004709de001200b200c808de0089
:100e90000884700085ff070001f0a1000cf0a70096
:100ea00001f0a000cdff37006120e100cfff32004c
:100eb0000801be000200be00f7ff37006150e100ec
:100ec000fcff3a00c9ff37006022b800060220008c
:100ed0000000d0008180d2000482d2008582d2003e
:100ee0000000a0000202520083825a000300310079
:100ef0000202420083824a000000a1000603e900ca
:100f0000f3ff3a0000000600889fbe008a9fbe00e3
:100f1000841f7800a0ff07004f0078001100330005
:100f2000f0ff2f00838f6c0006003b000405650076
:100f30000a00a7000800370009f0a60010002000f2
:100f400008003700820f5400838f5c0003003900d3
:100f50001000200001003e000000200009f0a70062
:100f60000000ea004f05be004f04be000000e00094
:100f700000000600881f7800030478000300e000ea
:100f800007003d0060001000e080180060011900bb
:100f9000e081190002003b0001f02d000300370042
:100fa0000400070008f0a70001f0a0004f0478003b
:100fb00000000600889fbe008a9fbe00008270006d
:100fc0000402710004827100260032000004be0099
:100fd0000200be006011b8006b09200095022000dd
:100fe0000182cf000a0039000541b1000082cf0024
:100ff000070039000541b1000982cf000400390023
:101000000541b1000882cf00010039000541b1005f
:1010100005425200120032000a003b00828171003a
:10102000610164008100d1000080d3008984d30075
:101030000884d3008b05e8000442e800f7ff3a007b
:10104000070037000804440089844c000000480071
:10105000818048008b05e9000442e900f9ff3a006d
:1010600012ff07004f05be004f04be00000006003f
:101070008001780002003700b15978000201e900d0
:0c1080000200e000fcff3a000000060047
:020000040000fa
:0c108c0005030000010600000402000043
:020000040000fa
:101098001400fa000000eb00000f78000000eb00dd
:1010a800100798000000eb00200798000000eb00f4
:1010b800300798000000eb00400798000000eb00a4
:1010c800500798000000eb00600798000000eb0054
:1010d800700798000000eb00000f98000040eb003c
:1010e80020579800630a0700210607002103200003
:1010f80000805000000f78001e0078008000780003
:10110800201421004d0507001e0078000000e900aa
:101118002114210000804000104078000080fb006e
:101128004800dd00800078001e0078000080e9009b
:101138002214210000004100104078000080fb00cc
:1011480001007000100798001e0078000080e90078
:1011580080007800201421009601070020079800dd
:10116800ae0090001e009000808f5000f5003a00fd
:10117800201421009040780000c8b30080cf5000b0
:10118800f0003a0040142100104078000080fb0075
:101198004800dd00800078005014210010407800dd
:1011a8000080fb00010070003007980060142100e7
:1011b800104078000080fb004800dd0080007800c7
:1011c80070142100104078000080fb0001007000be
:1011d800400798003014210010407800e34f500079
:1011e800ac003a0022c3b30021c0b3002014210090
:1011f800580107003e009000ef0f50003e003e00ef
:101208003e009000500798005e009000e10f4000fb
:1012180002003d000000eb00500798005e009000bf
:10122800ef0f500002003400f00020005007980033
:101238004e009000ee0f500002003600f000200033
:10124800400798000000eb00600798000040eb00a2
:1012580020579800220037002e5090008080fb0015
:101268005e0090000080400080004000800e210059
:101278000080400010007800700798002e50900001
:101288000080fb00411221000080400010407800df
:101298000080fb00000f9800ee0090000e08900000
:1012a80000804000600798000e0990007e009000c2
:1012b800800078002e5090008081fb000e0890007e
:1012c8008098b900e301400020142100008041000b
:1012d80065ff07002e5090000040e8002057980056
:1012e8002e5090008080fb004e009000808f5000b0
:1012f800d9ff390047003700be00900030022000b7
:10130800808f500043003e003e0090007400500063
:10131800500798005e009000e10f400002003d0079
:101328000000eb00500798005e009000ef0f50009f
:1013380002003400f0002000500798004e00900092
:10134800f30f50000200360080022000600798006a
:101358004e009000f30f50000200360040012000bc
:10136800400798000000eb00600798000040eb0081
:1013780020579800220037002e5090008080fb00f4
:101388005e00900000804000800040006010210056
:101398000080400010007800700798002e509000e0
:1013a8000080fb00311321000080400010407800cd
:1013b8000080fb00000f9800ee0090000e089000df
:1013c80000804000600798000e0990007e009000a1
:1013d800800078002e5090008081fb000e0890005d
:1013e8008098b900e30140002014210000804100ea
:1013f8001dff07002e5090000040e800205798007d
:101408002e5090008080fb004e009000808f50008e
:10141800d9ff39006e009000804078004014210008
:10142800014878006e00900063004000800078005a
:1014380020142100df000700200798006e009000ac
:1014480063004000ae009000814078002214210023
:1014580000004100014878006e00900064004000e0
:10146800ae009000c808de008140780022142100f8
:1014780000004100014878006e00900000407800ac
:101488006540400080407800201421003a000700a1
:10149800320037003014210010407800e64f500029
:1014a80023003a00be00900030022000808f5000d8
:1014b80029003e003e00900074005000500798003c
:1014c8005e009000e10f400002003d000000eb00cc
:1014d800500798005e009000ef0f500002003400a3
:1014e800f0002000500798005e00900031132100a2
:1014f80000804000104078000081fb00611421004a
:101508005e009000800140006010210000804100d2
:1015180010007800d4fe07001e0078000040780014
:101528008040780020142100130007000b003700ca
:1015380022c3b3008040eb0020142100850007007f
:101548000600370022c3b3008040eb0020142100be
:1015580080000700010037000000000022c3b3002c
:101568008040eb00201421007a0007002168a800c1
:101578000080fa00000006000800fa002007980022
:10158800614798000000eb00100798000000eb008e
:10159800000f7800048ea8006e4090000080fb00c9
:1015a800800078002e00900059040700100798006a
:1015b8006a30ef0001003700000000006d040700ea
:1015c800000f78009e007800708f60001e00780081
:1015d8000000e00008003a00508380000000e800a6
:1015e800508388005183800000352c00808f500084
:1015f800f1ff36000100370000000000048ea9004a
:101608000080fa00000006000200fa00004f78008f
:101618001009070010c0b30066f0b70068d0bf001b
:10162800e14f500015003a001e407800e34f50008b
:10163800030032001e407800e64f500004003a00d4
:101648006970ef0080c0b30036f0b7000b003700b8
:101658001e407800f04f500005003a0010c0b3005b
:1016680069f0b70090c0b30036f0b7000300370048
:101678006970ef0050c0b30036f0b70069d0bf0002
:10168800e14f500007003a0068d0bf00e64f500015
:1016980004003a006970ef0036d0bf001e404000d9
:1016a80036f0b70068d0bf000040e80068f0b70027
:1016b800810621009140780036d0bf0080cf5000cd
:1016c800060039006870ef006970ef0080002000a4
:1016d800008088002070ef002168a9000080fa00cf
:1016e800000006000200fa000040eb00004f7800fe
:1016f800e008070066d0bf00e14f500013003a0031
:1017080080c0b30036f0b7000040eb00004f78000f
:10171800090037001e4078000080fb0021142100da
:10172800008040008040eb00014878001e407800af
:101738000040e800004f78009e40780010c3b300d6
:1017480080cf5000f3ff36002168a8000080fa001f
:10175800000006000600fa001007980041479800ac
:10176800524798000040eb00004f7800ce409000b0
:10177800014f7800090037001e4078000080fb0008
:101788009e009000008040008040eb0001487800f7
:101798001e4078000040e800004f78009e40780026
:1017a8005e40900080cf5000f3ff39000080fa00bf
:1017b800000006000800fa0020079800310798008a
:1017c8000000eb00000f78000080eb00000f7800ad
:1017d80080002000100798002e009000104078002c
:1017e8008080fb001e00780000806800000f7800f1
:1017f8002e0090000000e800200798001e007800e6
:1018080061006000004078000004e0000800320039
:101818001e0078000000d100000f78009e007800bc
:1018280010002a0000806800000f780003003700cd
:101838001e0078000000d100000f78001e00900004
:101848000000e900100798001e0090000000e0006a
:10185800eaff3a003e0090000000e90030079800d7
:101868003e0090000000e000d9ff3a001e0078001a
:101878000080fa00000006000200fa000040eb00b9
:10188800004f78000040eb00004f78001e407800c1
:101898000080fb004101210000014000800e210072
:1018a80000004100010878001e4078000080fb001d
:1018b800411221000080400021c0b3000148780097
:1018c8001e4078000040e800004f78001e40780075
:1018d8000080fb004100210000014000800e210033
:1018e80000004100010878001e4078000080fb00dd
:1018f800411221000080400021c0b3000148780057
:101908001e4078000040e800004f78001e40780034
:101918000080fb008101210000014000800e2100b1
:1019280000004100010878001e4078000080fb009c
:10193800411221000080400021c0b3000148780016
:101948001e4078000040e800004f78001e407800f4
:101958000080fb008100210000014000800e210072
:1019680000004100010878001e4078000080fb005c
:10197800411221000080400021c0b30001487800d6
:101988001e4078000040e800004f78001e407800b4
:101998000080fb006100210000014000800e210052
:1019a80000004100010878001e4078000080fb001c
:1019b800411221000080400021c0b3000148780096
:1019c8001e4078000040e800004f78001e40780074
:1019d8000080fb00a100210000014000800e2100d2
:1019e80000004100010878001e4078000080fb00dc
:1019f800411221000080400021c0b3000148780056
:101a08001e4078000040e800004f78001e40780033
:101a18000080fb00c100210000014000800e210071
:101a280000004100010878001e4078000080fb009b
:101a3800411221000080400021c0b3000148780015
:101a48001e4078000040e800004f78001e407800f3
:101a58000080fb00e100210000014000800e210011
:101a680000004100010878001e4078000080fb005b
:101a7800411221000080400021c0b30001487800d5
:101a88001e4078000040e800004f78000040eb005e
:101a9800004f78001e4078000080fb0021012100e3
:101aa800000140006010210000004100010878009a
:101ab8001e4078000080fb003113210000804000a8
:101ac80021c0b300014878001e4078000040e800bb
:101ad800004f78001e4078000080fb006102210062
:101ae800000140006010210000004100010878005a
:101af8001e4078000080fb00311321000080400068
:101b080041c0b300014878001e4078000040e8005a
:101b1800004f78001e4078000080fb00a1022100e1
:101b28000001400060102100000041000108780019
:101b38001e4078000080fb00311321000080400027
:101b480041c0b300014878001e4078000040e8001a
:101b5800004f78001e4078000080fb002103210020
:101b680000014000601021000000410001087800d9
:101b78001e4078000080fb003113210000804000e7
:101b880021c0b300014878001e4078000040e800fa
:101b9800004f78001e4078000080fb0041032100c0
:101ba8000001400060102100000041000108780099
:101bb8001e4078000080fb003113210000804000a7
:101bc80021c0b300014878001e4078000040e800ba
:101bd800004f78001e4078000080fb0001012100c2
:101be8000001400060102100000041000108780059
:101bf8001e4078000080fb00311321000080400067
:101c080011c0b300014878001e4078000040e80089
:101c1800004f78000080fa00000006000000fa007b
:101c280001eca8000080fa00000006000000fa009d
:101c380001eca9000080fa00000006000400fa0088
:101c4800000f7800110798001e007800e20f50007e
:101c580007003200e30f500008003200e10f500087
:101c68000a003a009e0090003161880008003700a1
:101c78009e00900031628800050037009e009000a9
:101c880031638800000000000100370000000000f8
:101c98000080fa00000006000200fa00004f7800f9
:101ca800114798001e00fb00e30f5000400032006f
:101cb800e30f500005003c00e10f50000a0032001d
:101cc800e20f5000210032009d003700e50f500060
:101cd80069003200e50f50004e003500e60f500055
:101ce8007e0032009600370000742c00e3c120000b
:101cf80011322400d2bc2a008209780081097800b8
:101d08001061880000502c00e3c12000113224002b
:101d1800d2bc2a0082097800810978001062880004
:101d280000702c00e3c1200011322400d2bc2a002c
:101d380082097800810978001063880034aea80011
:101d480034cea800252ea9009600370000502c009c
:101d5800e3c1200011322400d2bc2a008209780095
:101d6800810978001061880000702c00e3c1200010
:101d780011322400d2bc2a00820978008109780037
:101d88001062880000742c00e3c120001132240086
:101d9800d2bc2a0082097800810978001063880083
:101da80034aea80034cea900252ea8007d00370047
:101db80000702c00e3c1200011322400d2bc2a009c
:101dc80082097800810978001061880000502c0091
:101dd800e3c1200011322400d2bc2a008209780015
:101de800810978001062880000742c00e3c120008b
:101df80011322400d2bc2a008209780081097800b7
:101e08001063880034aea80034cea900252ea9009e
:101e18006400370000702c00e3c120001132240058
:101e2800d2bc2a00820978008109780010618800f4
:101e380000742c00e3c1200011322400d2bc2a0017
:101e480082097800810978001062880000502c000f
:101e5800e3c1200011322400d2bc2a008209780094
:101e6800810978001063880034aea90034cea80038
:101e7800252ea8004b00370000742c00e3c1200079
:101e880011322400d2bc2a00820978008109780026
:101e98001061880000702c00e3c12000113224007a
:101ea800d2bc2a0082097800810978001062880073
:101eb80000502c00e3c1200011322400d2bc2a00bb
:101ec80082097800810978001063880034aea9007f
:101ed80034cea800252ea9003200370000502c006f
:101ee800e3c1200011322400d2bc2a008209780004
:101ef800810978001061880000742c00e3c120007b
:101f080011322400d2bc2a008209780081097800a5
:101f18001062880000702c00e3c1200011322400f8
:101f2800d2bc2a00820978008109780010638800f1
:101f380034aea90034cea900252ea8001900370018
:101f480000402c00e3c1200011322400d2bc2a003a
:101f580082097800810978001061880000402c000f
:101f6800e3c1200011322400d2bc2a008209780083
:101f7800810978001062880000402c00e3c120002d
:101f880011322400d2bc2a00820978008109780025
:101f98001063880034aea90034cea900252ea9000c
:101fa800000000000080fa00000006000600fa00a9
:101fb80020479800210798000000eb00000f7800e8
:101fc8002e409000e14f500013003a0061072100b5
:101fd800914078002e40900080cf50000a003200d7
:101fe80012ff070010002000540007000004200022
:101ff800000f78001e007800800078002000200084
:102008001c00070005ff0700ae009000100020002c
:102018000aff07001200370061072100914078008d
:102028002e40900080cf50000a003200fffe0700cb
:10203800200020004100070000042000000f780065
:102048001e007800800078001000200009000700ba
:10205800f2fe0700ae00900020002000f7fe070007
:102068002e41900061072100824878000080fa0024
:10207800000006000600fa001007980021079800e3
:102088000000eb00000f7800ae0090000030200048
:1020980001007000000f78001e009000e20f500051
:1020a8000e003200e30f500016003200e10f50001e
:1020b8001f003a00116180001e00780001007000c6
:1020c800e3c1200011322400d2bc2a008209780022
:1020d80081097800106188001600370011628000bd
:1020e8001e00780001007000e3c1200011322400b6
:1020f800d2bc2a0082097800810978001062880021
:102108000c003700116380001e0078000100700089
:10211800e3c1200011322400d2bc2a0082097800d1
:102128008109780010638800000000000100370072
:10213800000000000080fa00000006000200fa001b
:10214800000f78001e007800e20f50000e003200e9
:10215800e30f500016003200e10f50001f003a0054
:1021680011618000f0cf2f0000806000e3c12000e3
:1021780011322400d2bc2a00820978008109780033
:10218800106188001600370011628000f0cf2f0020
:1021980000806000e3c1200011322400d2bc2a0074
:1021a8008209780081097800106288000c003700e5
:1021b80011638000f0cf2f0000806000e3c1200091
:1021c80011322400d2bc2a008209780081097800e3
:1021d80010638800000000000100370000000000c4
:1021e8000080fa00000006002000fa00889fbe0068
:1021f800000f9800110f9800220f9800330f9800d5
:10220800440f9800550f9800660f9800770f9800b4
:10221800d0cc2c00c1dc230020079800310798009f
:102228002e019000be0190006e089000fe089000fc
:10223800effa0700600f9800710f98002e019000c8
:10224800be0190003eb89700ceb897002ffa07005d
:1022580030bf9f0041bf9f002e099000be0990002b
:10226800c2818800d38188000e0990009e099000e1
:10227800e2818800f3818800c0818000d1818000dc
:102288000001be000e0890009e089000c1f90700ea
:102298004007980051079800c4818000d5818000cc
:1022a80020828000318280000001be000400be0050
:1022b800b8f9070060079800710798006000b80037
:1022c800008fbe0040828000518280004e01900045
:1022d800de019000b0f90700408288005182880032
:1022e8004e019000de0190004e089000de0890003c
:1022f800bffa07000004be004082800051828000bf
:102308006e099000fe099000b9fa07000001be00ae
:102318000800be00a0f907000004be006e0190008e
:10232800fe0190003eb89700ceb89700b0fa0700bb
:102338000001be000800be0096f90700008fbe002d
:10234800c0818000d181800020828800318288008d
:1023580018c0b30002002f00f35724001e007800b5
:102368009e0090002dfa07000000e00001003c00ec
:102378000044eb000804e0000400320000002f00d5
:10238800f1572400008fbe000c00370018c0b300be
:102398006011b8001e0078009e0090001dfa07002a
:1023a8000000e000010035000044eb000804e000f4
:1023b800020032006000b800008fbe001e007800e6
:1023c8009e00900017fa0700000078004f04be0036
:1023d8000080fa00000006001200fa00889fbe0084
:1023e800500798006107980072079800030f98003b
:1023f8000000eb00000f78000000eb0010079800c9
:102408000000eb00200798000000eb003007980060
:102418000000eb0040079800de0090006e0090007e
:1024280000805000000f78009e00780010802f0078
:10243800808f500002003d0010802f00000f7800b0
:102448009e007800f07f2000808f5000020034004a
:10245800f07f2000000f780000828000ee009000de
:1024680000805000300798007e0090006101b8009d
:102478003e009000cf80de00809ab900828bb900c0
:1024880086027800050242000010b80001024200ee
:10249800840078004409dd004c04de000804710063
:1024a800cc8cde0008007800100798000e08900019
:1024b8006101b8001e007800cf80de00809ab90064
:1024c800828bb90086027800050242000010b8002d
:1024d8000102420084007800408bde00cf8bde00d2
:1024e8000600780020079800118280001e009000e6
:1024f800808050002e0090000080400010828800ec
:102508001182800010802f00808f500002003d0053
:1025180010802f001082880011828000f07f200038
:10252800808f500002003400f07f20001082880065
:10253800ee0090000182880011828000f07f200068
:1025480000804000400798004e0090004f04be00f5
:102558000080fa00000006000000fa008000200059
:10256800001188002222ef00700920004011880025
:102578002168a80045010700400821000084880060
:1025880040082100f0838800600b2100e083880068
:10259800600b2100d0838800108480000010a00008
:1025a80010848800108480000090a00010848800a7
:1025b800108480000080a1001084880010848000ae
:1025c8000000a100108488000080fa0000000600c6
:1025d8000200fa000040eb00004f7800e083800022
:1025e800104f7800e08380000000e800e083880056
:1025f800e1838000800e2100808f500002003a00a5
:10260800600b2100e0838800e1838000d083800094
:10261800808f500003003a00108480000010a00052
:1026280010848800108480000000a10010848800b5
:102638001e4078000080fa00000006000600fa003c
:10264800881f780010079800210798000000eb0009
:10265800000f7800090037001084800062006000d5
:102668000000e0000a003a001e0090001e0440002e
:10267800d7ff0700004c78001e0fe8002e009000de
:102688009e007800808f5000f3ff3900010037006a
:10269800000000001e0078004f0478000080fa0057
:1026a800000006000200fa00004f78002188a90007
:1026b800f08380001e487800f08380000000e80066
:1026c800f0838800f1838000600b2100808f500028
:1026d80002003a0040082100f0838800108480003e
:1026e8000090a1001084880001848000f08380009d
:1026f800808f500003003a00108480000080a00002
:10270800108488002188a8000080fa0000000600d4
:102718000600fa0010079800210798000000eb0057
:10272800000f78000a003700118480000010200094
:10273800008060000000e0000a003a001e009000df
:102748001e004000104078001e0fe800d5ff07006b
:102758002e0090009e007800808f5000f2ff390014
:1027680001003700000000001e0078000080fa0019
:10277800000006000200fa000000eb00000f7800dd
:102788001184800000202000008060000000e0002c
:10279800010032001e40a0001184800000102000bb
:1027a800008060000000e000010032001e30a00040
:1027b80010848000610060000000e0000100320029
:1027c8001e00a00010848000620060000000e0008d
:1027d800020032001e20a000010037001e10a000d9
:1027e8001e0078000080fa00000006000200fa00cf
:1027f800000f7800e08380009e004000800e2100da
:10280800808f500009003900e08380009e0040005e
:10281800800e21000000ea0000804000610b2100ca
:10282800008040001040780003003700e0838000fb
:102838001e004000104078000080fa0000000600ea
:102848000800fa0020079800310798000000eb0004
:102858001007980010c0b300004f7800be00900029
:1028680010032000808f500007003e001084800075
:10287800620060000000e00003003a002e009000b3
:102888000000e00003003a000040eb00004f780031
:1028980034003700e0838000800078003e0090001c
:1028a80080804000600b21000000ea00808040002a
:1028b8002003200000017800110009008280d80060
:1028c8008000fd0010079800e1838000d08380001d
:1028d800808f50000a003100e18380003e009000a4
:1028e80080804000d08380000000e900808f500085
:1028f800150036000040eb00004f7800120037004a
:10290800e1838000d0838000808f50000e00360065
:102918009e009000600b210080804000e0838000d2
:10292800808f5000080031009e009000600b21004d
:1029380080804000d0838000808f500002003900e2
:102948000040eb00004f78001e4078000004e000d3
:10295800040032003e009000a4ff0700ae00900083
:10296800804878001e4078000080fa0000000600c9
:102978000000fa0010848000610060000000e000a0
:102988000f003a00e1838000d0838000808f5000e0
:1029980005003600e083800080007800d083800046
:1029a8000080500007003700e08380008000780036
:1029b800d0838000008050002003b0000100370061
:1029c8000000eb000080fa00000006000000fa009a
:1029d8001184800000102000008060000000e000ea
:1029e8000f003a0001848000f0838000808f50003f
:1029f800050036000084800080007800f0838000a5
:102a080000805000070037000084800080007800b4
:102a1800f0838000008050002003b00001003700e0
:102a28000000eb000080fa00000006000000fa0039
:102a3800108480000000d100614060000080fb002d
:102a480000f0a7000000ea000000ea004f00de00e6
:102a5800004078000080fa00000006000000fa003c
:102a6800108480004800de00614060000080fb00a8
:102a780000f0a7000000ea000000ea004f00de00b6
:102a8800004078000080fa00000006000000fa000c
:102a980021e2a8002342a8000080fa0000000600f6
:102aa8000000fa0021e2a9002342a9000080fa00f0
:102ab800000006000000fa00101180000080fa00f3
:102ac800000006000a00fa00889fbe008a9fbe0028
:102ad8008c9fbe0010d0bf000004e0008d003a00bb
:102ae8009b0507000000d100000f780024d0bf002c
:102af800e14f500011003a001e0078000000e0008d
:102b08000e0032001e0078008000eb00f2ff2f005c
:102b18000300200000005100818059004f09de00a9
:102b28008001eb0002004000838048008180d100d2
:102b38000080d300000f7800030037001e007800e3
:102b48000000d100000f7800f0ff20009e00780000
:102b5800808f500002003600f0ff2000000f780040
:102b680071808000b0122000808f500002003e006b
:102b7800c0122000708088007180800080ed2000e5
:102b8800808f50000200360080ed200070808800a1
:102b9800d08080008000eb0040f807000004be00f1
:102ba800c08080008000eb003cf80700a299290053
:102bb80093f123008ef807000001be000800be0054
:102bc80074f7070018c0b3006011b80013f80700c5
:102bd8000000e00001003c000044eb000804e000b5
:102be80011003200d08080008000eb002bf8070035
:102bf8000004be00c08080008000eb0027f80700ba
:102c0800a299290093f1230079f807000001be007a
:102c18000800be005ff7070002f807000000780010
:102c2800b0808800010037001630ef00b1808000c6
:102c3800f0ff2000808f500002003600f0ff2000d7
:102c4800b08088007281800083818000120798001c
:102c5800230798005c8180006d8180003a818000a4
:102c68004b8180001e0078008000eb000bf8070005
:102c78000004be00708080008000eb0007f80700a9
:102c88001e019000ae019000829fbe000c03be00a2
:102c98000a02be000801be0053fd0700e487570082
:102ca80080828800808280008000eb0022992000ca
:102cb8008289b900e002b90084017800030141006b
:102cc800239920000300b800010141008200780028
:102cd800f2ff20000300200079f8070000007800c8
:102ce800e0808800e180800010032000808f500081
:102cf80002003e0020032000e0808800e180800080
:102d080020992000808f5000020036002099200072
:102d1800e080880010d0bf00e14f50004c003a001e
:102d280072818000838180003207980043079800f1
:102d38005c8180006d8180003a8180004b81800039
:102d4800a0808000cf80de00d1f707000004be001d
:102d5800908080008000eb00d0f707003e019000d3
:102d6800ce019000829fbe000c03be000a02be0086
:102d78000801be001cfd0700e48757008082880018
:102d8800808280008000eb0062d120008289b90037
:102d9800e002b900840178000301410063d12000fa
:102da8000300b80001014100820078004409dd00f9
:102db8004c00de0000007100cc08de000000780046
:102dc80090828800a381800092818000c180800069
:102dd8009082800080fd0700a0828800a082800089
:102de800cf80de00229920008289b900e002b90074
:102df8008401780003014100239920000300b800f2
:102e080001014100820078004409dd004c00de0029
:102e180000007100cc08de0000007800e080880027
:102e2800e180800010032000808f500002003e00e7
:102e380020032000e0808800e180800020992000a5
:102e4800808f50000200360020992000e080880022
:102e5800e180800024d0bf0054fc07004f06be006c
:102e68004f05be004f04be000080fa0000000600b7
:102e78000e00fa000000eb00000f78000000eb00e5
:102e8800100798000000eb00200798000000eb00f6
:102e9800300798000000eb00400798000000eb00a6
:102ea800500798000000eb00600798000080fa00c7
:102eb800000006000200fa00004f78001e80fb00a8
:102ec800401988002023a900000000000019800094
:102ed800610060000000e000fcff32000018800084
:102ee8000080fa00000006000000fa00a00320009d
:102ef800101388001000200020138800c000200054
:102f0800001388000080fa00000006000400fa00a0
:102f1800000f7800110798000000000000138000df
:102f2800620060000000e000fcff3a001e0078002c
:102f3800104078000080fb0040138800000000006b
:102f48000113800000022000008060000000e00003
:102f5800fbff3a0040138000804078001e0090007c
:102f6800014878000080fa00000006001800fa0006
:102f7800100f9800210f9800320f98000000eb0006
:102f8800000f78000000eb00100798000000eb002d
:102f9800700798000000eb00000f98001000200058
:102fa800600798001e0890000000e00005003a0045
:102fb8000000eb00500798007000470020079800b9
:102fc80004003700ee009000510798009e0890001a
:102fd800210798003e0890000000e00005003a0034
:102fe8000000eb00400798006e004700300798008b
:102ff80005003700ee00900041079800be089000d9
:103008003107980000000000001380006200600093
:103018000000e000fcff3a001d00370000138000ac
:10302800620060000000e00009003a002e009000f5
:10303800104078000080fb0040138800ae0090002c
:103048005e00900000804000200798001e0fe800f6
:103058000113800000022000008060000000e000f2
:103068000b003a0040138000804078003e0090003a
:1030780001487800be0090004e009000008040009b
:10308800300798001e0090000000e8001007980024
:103098002e0890009e007800808f5000dfff3900d6
:1030a800100037000113800000022000008060003b
:1030b8000000e0000b003a004013800080407800d8
:1030c8003e00900001487800be0090004e0090003d
:1030d80000804000300798001e0090000000e800c3
:1030e800100798009e0090002e089000808f5000d6
:1030f800ecff39001e0078000080fa00000006008e
:103108000400fa00204798000e80e8008e0078003e
:103118007eff07001e4078000080fa0000000600cd
:103128000600fa00000f780011079800220798009f
:103138002e0190009e0090001e0078008bff070073
:103148000080fa00000006000000fa001113800059
:1031580000402000008060000000e00002003a000b
:103168000000eb0001003700100020000080fa008a
:10317800000006000000fa00001380000080fa003a
:10318800000006000000fa006000200010608800bf
:103198004009200020608800062cef000a2cef0070
:1031a8001a2cef001e2cef00202cef00402cef0013
:1031b800602cef0000402c00e3c1200011322400f5
:1031c800d2bc2a0082097800810978001061880041
:1031d80000402c00e3c1200011322400d2bc2a0098
:1031e80082097800810978001062880000402c006c
:1031f800e3c1200011322400d2bc2a0082097800e1
:10320800810978001063880030002000e3c12000a5
:1032180011322400d2bc2a00820978008109780082
:103228002061880030002000e3c120001132240012
:10323800d2bc2a00820978008109780020628800bf
:1032480030002000e3c1200011322400d2bc2a0043
:10325800820978008109780020638800a004200092
:1032680030618800a004200030628800a00420009b
:1032780030638800282cef00482cef00682cef0002
:1032880050002000506188005000200050628800e3
:1032980050002000506388005000200060618800c2
:1032a80050002000606288005000200060638800a1
:1032b800322cef00522cef00722cef00342cef0070
:1032c800542cef00742cef003a2cef005a2cef002e
:1032d8007a2cef003c2cef005c2cef007c2cef00ec
:1032e8003e2cef005e2cef007e2cef000000280043
:1032f800006088000080fa00000006000000fa0064
:103308000080fa00000006000000fa00314080004a
:1033180000202000008060000000e0000200320071
:10332800f6ff07000728a9000080fa000000060041
:103338000000fa000080fa00000006000000fa0011
:103348003140800000202000008060000000e00084
:1033580002003200f6ff07000bc8a9000080fa003f
:10336800000006000000fa000080fa0000000600d5
:103378000000fa003140800000202000008060003a
:103388000000e00002003200f6ff07000be8a90089
:103398000080fa00000006000000fa000080fa0031
:1033a800000006000000fa003140800000202000e4
:1033b800008060000000e00002003200f6ff070015
:1033c8000c08a9000080fa00000006000000fa00be
:1033d800003a80000080fa00000006000200fa00af
:1033e800faff0700000f78001e007800240007008d
:1033f8000004e0000200320000002800710007000d
:103408001e0078002a0007000004e00002003200d5
:10341800000024006b0007001e007800320007003f
:103428000004e000020032000020200065000700d0
:103438001e0078003a0007000004e0000200320095
:10344800000820005f0007001e0078004200070007
:103458000004e000020032000004200059000700c8
:103468001e0078004a0007000004e0000200320055
:1034780000012000530007000080fa000000060049
:103488000400fa00100798000040eb00004f780095
:103498001e0090000000e00002003d0010c0b300d4
:1034a800004f78001e4078000080fa0000000600f7
:1034b8000400fa00100798000040eb00004f780065
:1034c8009e00900000002400008060000000e000e2
:1034d8000200320010c0b300004f78001e40780090
:1034e8000080fa00000006000400fa0010079800a7
:1034f8000040eb00004f78009e0090000020200064
:10350800008060000000e0000200320010c0b3003c
:10351800004f78001e4078000080fa000000060086
:103528000400fa00100798000040eb00004f7800f4
:103538009e00900000082000008060000000e0006d
:103548000200320010c0b300004f78001e4078001f
:103558000080fa00000006000400fa001007980036
:103568000040eb00004f78009e009000000420000f
:10357800008060000000e0000200320010c0b300cc
:10358800004f78001e4078000080fa000000060016
:103598000400fa00100798000040eb00004f780084
:1035a8001e009000700060000000e0000200320081
:1035b80010c0b300004f78001e4078000080fa0069
:1035c800000006000200fa00000f78009e80ea0062
:1035d800003a800000806000003a88000080fa000d
:1035e800000006000000fa004027ef000080fa0003
:1035f800000006000200fa000000eb00000f78004f
:103608001bfe070060d0bf000040e80060f0b70074
:1036180060d0bf00e94f5000040036006070ef0032
:10362800008080000000a0000080880061d0bf00fa
:103638000040e80061f0b7001106210091407800d1
:1036480030c6b30080cf5000040036006170ef0030
:10365800008080000010a0000080880062d0bf00b9
:103668000040e80062f0b70062d0bf00e74f4000ba
:10367800040036006270ef00008080000020a00087
:103688000080880000808000000f78001e0078000d
:10369800680060000000e000040032001e007800ae
:1036a8000030a100000f78004c0007001e007800d1
:1036b800700060000000e000040032001e00780086
:1036c8000040a100000f7800480007009e00780025
:1036d80000022000008060000000e00004003200ca
:1036e8001e0078000050a100000f7800420007007b
:1036f8001e00780061006000004078000004e000cf
:10370800040032001e0078000000a100000f7800bd
:10371800140007001e007800620060000000e0004e
:10372800040032001e0078000010a100000f78008d
:103738000f0007001e007800640060000000e00031
:10374800040032001e0078000020a100000f78005d
:103758000a0007001e007800008088000080fa0038
:10376800000006000000fa000080fa0000000600d1
:103778000000fa000080fa00000006000000fa00cd
:1037880022d0bf000000fb001100200042f9070012
:1037980022d0bf000000fb000000e900618428007f
:1037a800008040001040780022f0b700208380009d
:1037b8000000e8002083880063d0bf000040e800d4
:1037c80063f0b70063d0bf00e44f500001003a0037
:1037d8006370ef000080fa00000006000000fa00a5
:1037e8002bf607000080fa00000006000000fa002f
:1037f8000080fa00000006000000fa000080fa00cd
:10380800000006000000fa00042eef00142eef005e
:103818000008200020718800342eef00442eef00ad
:10382800542eef00642eef0030b82100007088009d
:10383800e07f200080708800f0d72b00007188009e
:10384800001020008071880000002f00007288009e
:103858003000200080728800003c2000007388003f
:103868000c2eef001c2eef002c2eef003c2eef004c
:103878004c2eef005c2eef006c2eef000080200035
:103888005070880080002000d07088002000200040
:10389800507188003a2eef004a2eef005a2eef00a2
:1038a8006a2eef00062eef00162eef00262eef00f0
:1038b800362eef00462eef00562eef00662eef0054
:1038c800300120007070880060102000f0708800bf
:1038d800500020007071880000002f00707288006e
:1038e800008020004070880080002000c0708800a0
:1038f8002000200040718800113a8000f00b200061
:1039080000816000600420007105200023742000fd
:1039180080497800814978008249780051348000d4
:10392800f00f2c00008060000080a0005034880058
:103938002136800000f82f0080806000800320007e
:103948000100700020368800103a800000017800dd
:103958000260a0006004200071052000237420008c
:103968008049780081497800824978000080fa000f
:10397800000006000000fa000621ef00f0ab22006c
:10398800600888000002280080088800a083800062
:103998000000e00002003a0060d121002500070085
:1039a80000e8a90020e8a800801c21008040eb0066
:1039b800014878000080fa00000006000200fa00c2
:1039c800000f78009e00780061088800801c2100a4
:1039d8008040eb00014878000080fa0000000600f3
:1039e8000000fa00600880000080fa00000006006d
:1039f8000200fa00000f78009e0078003108880065
:103a0800801c21008040eb00014878000080fa000b
:103a1800000006000000fa00300880000080fa006c
:103a2800000006000000fa002ef707000080fa00e8
:103a3800000006000200fa00000f780020e8a90044
:103a48009e007800a183880020e8a8000080fa0082
:103a5800000006000000fa00801c21008040eb00f6
:103a68000148780020e8a80011e1a8000080fa00c9
:103a7800000006000000fa0011e1a9000080fa0029
:103a8800000006000200fa00801c2100104f780098
:103a98001e4078000004e00003003200801c210072
:103aa8008040eb00014878001e4078000080fa0052
:103ab800000006000000fa00901c21001040780069
:103ac8000080fb000080fa00000006000000fa00f9
:103ad800901c21008040eb00014878000080fa002b
:103ae800000006000000fa000021ef00d0da2000f4
:103af800100888000000280020088800601c2100a9
:103b08008040eb00014878000080fa0000000600c1
:103b18000000fa0000408000680060000000e0003b
:103b28000a003200701c2100104078008040e80034
:103b3800701c210001487800601c210011c0b300ee
:103b4800014878000068a900aafe07000080fa0072
:103b5800000006000200fa00000f78009e007800be
:103b680011088800601c21008040eb0001487800a3
:103b78000080fa00000006000000fa00100880002b
:103b88000080fa00000006000200fa00000f78002a
:103b98009e00780001088800601c21008040eb002e
:103ba800014878000080fa00000006000000fa00d2
:103bb800000880000080fa00000006000000fa00fb
:103bc800601c21008040eb000148780005e1a80056
:103bd8000080fa00000006000000fa0005e1a900d4
:103be8000080fa00000006000200fa00601c2100b4
:103bf800104f78001e4078000004e00003003200f7
:103c0800601c21008040eb00014878001e407800cd
:103c18000080fa00000006000000fa00701c210075
:103c2800104078000080fb000080fa0000000600c9
:103c38000000fa00701c21008040eb000148780069
:083c48000080fa0000000600f4
:020000040000fa
:103c5000a611000020000000800000006c10000091
:103c60000200000082000000ffff00006e10000054
:103c70000200000080000000c611000002000000e9
:103c800080000000701000000200000080000000b2
:103c90007a1000006e00000080000000721000002a
:103ca0000200000080000000c811000002000000b7
:103cb000800000007410000002000000800000007e
:103cc00042110000320000008000000000100000df
:103cd00024000000800000002410000014000000f8
:103ce000820000000100660066a63f000000800020
:103cf0003f0ad700233cb00004050000320000005a
:103d00003810000014000000800000007610000051
:103d100002000000820000000100000060100000ae
:103d20000600000080000000741100003200000056
:103d30008200000000aa5500000000000000000002
:103d40000000000000000000000000000000000073
:103d50000000000000000000000000000000000063
:103d60000000000000000000000000000000000053
:103d700000000000000000007810000002000000b9
:103d800082000000102700004c100000140000000a
:103d900080000000e81000005a00000080000000d1
:103da0006610000006000000800000000000000017
:020000040000fa
:103db0000000fa0043c7bf008080fb00800f200096
:103dc0000081600080072000a109200033742000da
:103dd000804978008149780082497800103a800053
:103de0004c00de00e7406000103a80004800de0032
:103df0006740600080cf50001300320042c7bf0010
:103e00000081fb0060042000710520002374200065
:103e100080497800814978008249780000000000dc
:103e2000103a8000610060000000e000fcff3a00f2
:103e300000000000113a80000002200000806000b5
:103e40000000e000fbff320000102300203a880051
:103e50004827ef004e27ef0040022000303a88004c
:103e60006027ef006227ef006427ef006627ef006e
:103e70006a27ef006c27ef00320020008007200047
:103e8000a10920003374200080497800814978001e
:103e90008249780012002000600420007105200093
:103ea0002374200080497800814978008249780095
:103eb00000000000103a8000610060000000e00097
:103ec000fcff3a0000000000113a800000022000d0
:103ed000008060000000e000fbff32000080fa007c
:103ee000000006000200fa00000f780021028000a6
:103ef000200f2000008060001e007000200288005b
:103f00000080fa00000006000000fa00c3e8a800e4
:103f100000000000000000000080fa000000060021
:103f20000000fa0039fe0700a1ff07004400070067
:103f3000effb07008af907000800070093fc070061
:103f40008efe0700e9fe0700efff070000022000d9
:103f5000e4ff07000080fa00000006000000fa00fd
:103f600040402800001988002223ef004000200074
:103f7000201988002823ef002e23ef003023ef00c4
:103f80003223ef002623ef00101980004200de00ec
:103f90007f4060006ef0b7000080fa00000006006d
:103fa0000000fa000080fa00000006000000fa009d
:103fb0000140800000002200008060000000e0005e
:103fc00002003200f6ff070001a8a9000080fa00f5
:103fd000000006000000fa0001eca8000080fa00d2
:103fe000000006000000fa00cdff0700f9ff0700ff
:103ff000907080004300de006140600080407800e7
:10400000200020008008dd00107180000000d10039
:10401000614060000040400080c04000107080009f
:104020004b00de006140600000c0400022f0b7009d
:10403000e4fe070029000700b7fe0700feff370077
:104040000000fa0001438000f0f82f0000806000bb
:104050000040a000004388003142800080ff2f0014
:10406000008060000000a0003042880021428000f3
:10407000f0ff28000080600000c0a00020428800ff
:1040800011428000f0ff28000080600000c0a00006
:10409000104288000080fa00000006000000fa00cc
:1040a00043ff07000080fa00000006000000fa004d
:1040b000003a80000080fa00000006000000fa00cc
:1040c000c8fc07000080fa00000006000000fa00ab
:1040d00046fd07000080fa00000006000000fa001c
:1040e000c3e8a8000080fa00000006000000fa0003
:1040f000c3e8a9000080fa00000006000000fa00f2
:104100002268a8000268a9000080fa0000000600ea
:10411000000f78009e00780061838800ffff370061
:104120000000fa00601a210080077800e01b2100df
:10413000000188000080fa00000006000000fa007c
:1041400000002800000e880000002400100e8800e7
:104150000080fa00000006000000fa00600e8000f7
:084160000080fa0000000600d7
:020000040000fa
:020000040001f9
:045fe000ceff0000f0
:020000040000fa
:020000040001f9
:045fe400ffff0000bb
:020000040000fa
:020000040001f9
:045fe8007fff000037
:020000040000fa
:020000040001f9
:045fec003dff000075
:020000040000fa
:020000040001f9
:045ff0007bff000033
:020000040000fa
:020000040001f9
:045ff400ffff0000ab
:00000001FF
